:03000000020006F5
:03005F0002000399
:030003000200B345
:10006200AE82AF83EE4F600905FF1EBEFF011F8007
:10007200F322AE82AF83EE4F6015900064C007C0DA
:1000820006120062D006D0071EBEFF011F80E722C3
:10009200758780759850758920758DF3D28E22856B
:1000A200829910990280FB2210980280FB85998226
:1000B200221200927F00EF2402FCE43401FD7E80D4
:1000C2008C828D838EF01200E2FE600C8E82C0075D
:1000D2001200A1D0070F80DE1200AA1200A180F840
:0D01020048656C6C6F20576F726C642100B3
:06003500E478FFF6D8FD9F
:100013007900E94400601B7A0090010F780175A014
:1000230000E493F2A308B8000205A0D9F4DAF2754C
:02003300A0FF2C
:10003B007800E84400600A790175A000E4F309D860
:10004B00FC7800E84400600C7900900001E4F0A318
:04005B00D8FCD9FAFA
:0D0006007581071200FEE582600302000311
:1000E20020F71430F6148883A88220F507E6A88347
:1000F20075830022E280F7E49322E02275820022D7
:00000001FF
